:020000040800F2
:1000000000500020010B0008A9110008AB110008E6
:10001000AF110008B1110008B31100080000000082
:10002000000000000000000000000000B711000800
:10003000B511000800000000B9110008BD1100084A
:1000400021120008231200082512000827120008B8
:10005000291200082B1200082D1200082F12000888
:100060003112000833120008351200083712000858
:10007000391200083B1200083D1200083F12000828
:1000800041120008431200084512000847120008F8
:10009000491200084B1200084D1200084F120008C8
:1000A0005112000853120008551200085712000898
:1000B000591200085B120008631200086B12000856
:1000C0006D1200086F120008711200087312000808
:1000D0007512000879120008A9120008D912000848
:1000E000DB120008DD120008DF120008E112000830
:1000F000E3120008E5120008E7120008E912000800
:10010000EB120008ED120008EF120008F1120008CF
:10011000F3120008F5120008F7120008F91200089F
:10012000FB120008FD120008FF120008011300086E
:10013000F0B5082089B0012101F078FA402408A91F
:10014000042721F8044D234804AD8DF81F7001F0F9
:1001500037F901213846204C01F076FA284601F0A3
:1001600089FB4721ADF810102046294601F0CAFA54
:10017000002002250126ADF80400ADF80A00ADF814
:100180000C000DEB07012046ADF80650ADF80860F5
:1001900001F0E2FA2046502101F08FFB204639465B
:1001A00001F0A3FB2046802101F0ABFB3246204644
:1001B000294601F076FB2046294601F0BFFB204688
:1001C000314601F060FB054B4FF080421A6009B0E8
:1001D000F0BD00BF000C01400008004000E100E05D
:1001E00070B59648022101F0ADFB002800F0258192
:1001F0000221924801F0B2FB904801F090FB0446C6
:100200008E4801F08FFB4FF4007105468C4801F0D9
:100210008FFB40B18A484FF4007101F08FFB44F628
:1002200020654EF66024A5F59650421E631B90B2E1
:1002300040F2BA219BB288428CBF00220122B3F562
:10024000167F2CBF002202F001027AB1B3F5967F2F
:100250000CD97C48DFF8F0E1DFF8F0C10021012281
:1002600002708EF80010ACF80010E6E0754A92F8C3
:1002700000C0BCF1010F03D01178022940F0DD80ED
:10028000A5F1D20E1FFA8EF4F02C04D96D4C7048F3
:1002900021782A46B4E0A3F5EA74E11E8AB2A3F1FC
:1002A000C90CDA2A8CBF002201221FFA8CF0F82830
:1002B0008CBF144642F001043CB9624E6548317867
:1002C0002A4600F0A7FA3470B7E072B15F4BDFF84E
:1002D00078E119889EF800C001204FFA8CF2904016
:1002E00008431FFA80FEA3F800E0574B1A78511C10
:1002F000C8B2544A18701178012950D193F800C03F
:100300004FFA8CF3042B4ADD504953480A880023E6
:100310001FFA82FE80F800E01A46B1F800C01CF017
:10032000010F01D0501CC2B20888013340F34E0CBB
:10033000DBB21FFA8CFE052BA1F800E0EDD112F024
:10034000010F0AD03F4C414B21781A88434812B222
:1003500000F060FA002121706FE03F4B187800F048
:100360000F0C83F800C093F800E0BEF1030F02D039
:100370001A78042A10D1334ADFF8CCC0DFF8CCE079
:1003800037490023022010708CF800300422AEF8A8
:1003900000300B70334B01E02A4B03221A70294BBB
:1003A0001978022949D1284890F800C04FFA8CFEEC
:1003B000BEF1080F41DD254900220C8813461FFAC3
:1003C00084FCB1F800E01EF0010F01D00133DBB274
:1003D0000C88013244F34E0ED2B21FFA8EF4092A71
:1003E0001A480C80EDD113F001021D4B0BD0154CB7
:1003F00021781B78B0F800C01B485AB20FFA8CF372
:1004000000F008FAA6E71978184D4CB201315FFAEE
:1004100081FE0D4905F804C0DFF848C083F800E00C
:100420000A7002801A789CF800E051B24FFA8EF000
:10043000814202DB034B0320187070BD00080040AE
:1004400000040040210000202000002026000020A1
:10045000D01A0008F71A0008220000201C1B000810
:1004600024000020230000203E1B0008280000205C
:10047000F0B5002989B005DA4942002802DA404285
:100480002D2500E00025002AC9B202DA52423026AA
:1004900000E02026142A3FDC04464FF0000CB4FB99
:1004A000F1F701FB1740C0B2092801D90730C0B2EB
:1004B00008AF674430300CF1010CB4FBF1F407F8DD
:1004C000140C5FFA8CFC002CE9D13DB108A9614401
:1004D00001F8145C0CF101045FFA84FC9445BEBF82
:1004E00008AF07EB0C0101F8146CF3DB0CF1FF32E1
:1004F000D0B20B4C0146002208AF7E18D51816F872
:10050000146C0139EDB282426655C9B202D2571C51
:10051000FAB2F1E76344DBB2184609B0F0BD00BFA0
:10052000480B002010B50D4C0D4923680D485A1C8E
:10053000C95C226001F08DFA0B48226803689A4278
:100540000AD3084840F22771002201F067FADFF869
:100550001CC001208CF8000010BD00BF400B002023
:100560003C0A00200044004030000020020000202F
:100570000C4B19880AB2B2F1FF3F08BF4FF6FF706B
:100580000ED01A880FFA82FCBCF1000FB7BF188892
:1005900018884FF0FF3C80B2B4BFA3F800C080B20F
:1005A00000B270470000002038B5134D2A8892B27F
:1005B000DAB1124CDFF848E0238812489AB21EF8EC
:1005C000021001F046FA2188481C1FFA80FCA4F8AA
:1005D00000C02B885A1E91B22980208883B2B3F5BF
:1005E000006F07D30020208004E0064840F2277106
:1005F00001F014FA38BD00BF2C000020340A00209E
:100600003402002000380140002210B540F227716A
:100610000446124801F002FA114BDFF848C01A886C
:1006200091B20CF801401888DFF83CC0421C91B22E
:100630001980BCF80000421C91B2ACF80010188878
:1006400082B2B2F5006F01D300201880034840F257
:100650002771012201F0E2F910BD00BF003801400E
:10066000440B0020340200202C00002008B5FFF7C6
:10067000CBFF08BD10B5044601E0FFF7C5FF14F835
:10068000010B0028F9D110BD10B5ADF5007D3C225D
:100690006B4603F8012BDFF844E000220EE010F86F
:1006A00002C001324FEA1C140CF00F0C1EF804407B
:1006B0001EF80CC003F8024C03F801CC9C46023330
:1006C0008A42ECDB3E2000238CF800008CF80130DD
:1006D0006846FFF7CFFF0DF5007D10BD841B0008B5
:1006E0001E4938B50B680BB9022836D11B4B1C4D7F
:1006F00019686854481C18601A68032A2DD9AC7808
:10070000D3F800C00334A44527D9D3F800E0284625
:100710005FFA8EF1FFF7B8FF1248FFF7ABFF012336
:1007200015F804C0E85C013380EA0C02A3420C49CE
:100730002A55F5D30A5D0C4B1AB14FF6FE7119809C
:1007400008E091F801E00948A3F800E040F22551E3
:1007500001F064F9014B00221A6038BD380A00200C
:1007600034000020641B0008000000200038014015
:10077000224B10B514461A78002AFCD0204B0222D6
:100780001A705870081E18BF01205FFA84FC002CF4
:100790000CBF002000F0010083F802C018B1D81C83
:1007A000224601F083F9164AE11C00235354601CD1
:1007B00008E0013312F801C012F803E08EEA0C0ED3
:1007C00002F801E09842F4DA221D0E4B0E4C002094
:1007D0001A602060094C207019680948C9B2FFF7F7
:1007E00053FF0A48FFF746FF094840F227710122EC
:1007F00001F014F921780029FCD010BD020000207E
:100800003C0A002030000020400B00206A1B00083A
:10081000004400400FB4F7B508AB53F8044B0A2668
:1008200001933B4D002364E00134252A35D114F8AF
:10083000010B302803D114F8010B012100E0002145
:10084000002205E08018303806FB020214F8010B84
:10085000A0F1300CBCF1090FF4D901B152426C285F
:1008600003D114F8010B012700E00027002843D032
:1008700073280CD1019A111D0191126802E0E9540C
:100880000133DBB212F8011B0029F8D131E06328F3
:1008900007D10198021D01920268591CEA54CBB29B
:1008A00027E0752808BF4FF00A0C05D064280CBF5C
:1008B0006FF0090C4FF0000C582814BF4FF0000ED9
:1008C0004FF0010E782808BF4EF0010EBEF1000F68
:1008D0000CBF61461021622801D009B90CE0022149
:1008E000019800F1040CCDF804C00068FFF7C0FDCA
:1008F00003462278002A97D1054C00222046E25474
:10090000FFF7B8FE2046BDE8FE4004B0704700BFC8
:10091000480B002038B5104DAC7888B1A142B4BF67
:100920000A462246E91C01F0C1F821460B48FFF7B0
:1009300071FFE81C2146FFF7A7FE0948FFF79AFE62
:10094000084B4FF0FF321A80074840F22551012230
:1009500001F064F8204638BD34000020701B000808
:10096000B31B00080000002000380140F0B5012151
:1009700089B04FF4804000F059FE01214FF400305F
:1009800000F062FE06AD032202244FF4C0608DF831
:100990001E2000F0B7FC25218DF8194028460124BF
:1009A0008DF818108DF81A408DF81B4000F0B4FC3B
:1009B00026208DF81800182628468DF8194008AD15
:1009C00000F0AAFC4FF4007C8DF81F60314E25F832
:1009D00004CD3046294600F0F3FC04231F46304680
:1009E0002946ADF81C3000F0EBFC8DF81F70304646
:1009F00029464FF48067ADF81C7000F0E1FC082236
:100A000030462946ADF81C2006F5405600F0D8FCCB
:100A100002AF0C204FF4E13100250291ADF8120035
:100A200039463046ADF80C50ADF80E50ADF81050C8
:100A3000ADF8145000F096FF3046214600F0E0FF7C
:100A400040F22553194630462246019300F0E6FF56
:100A500040F2277C61462A463046A6F57446CDF81A
:100A600000C000F0DBFF3046394600F07BFF304627
:100A7000214600F0C5FF019B30461946224600F092
:100A8000CDFFDDF800C0304661462A4600F0C6FFC3
:100A900009B0F0BD0008014008B5104A104B1149DB
:100AA00003E052F8040B43F8040B8B42F9D30E4ACF
:100AB0000E4B0F4903E052F804CB43F804CB8B42B2
:100AC000F9D30C4B0C49002201E043F8042B8B4274
:100AD000FBD30A4B0BB1AFF3008008BDD01C00085C
:100AE0000000002020000020F01C00082000002052
:100AF00020000020200000205C0C002000000000EE
:100B0000684620F007018D4601B5FFF7C5FF00F0EC
:100B1000D7F8BDE801408546704700007FB500F07A
:100B200043FC00F0A7FC4FF4803000F0C7FC00F05D
:100B3000AFFD4E4B01280446187028D1102000F05C
:100B400027FC022000F01AFC002000F0F7FC002037
:100B500000F008FD4FF4806000F0FAFC4FF4004014
:100B600000F00AFD4FF480304FF4E01100F0C2FCB9
:100B7000204600F0CBFC392000F074FD0028FAD0AC
:100B8000022000F0C9FC00F0D1FC0828FBD1384855
:100B900000F0FCFC37484FF47A760468DFF8D8C0E0
:100BA000B4FBF6F323F07F423448511EF025416038
:100BB00007268CF823500025856001210660142447
:100BC0001D2000F033FD4FF400538DF80F4004ACAE
:100BD00024F8043D0126214629488DF80E6000F0D6
:100BE000EFFB4FF4804221462548ADF80C2000F081
:100BF000E7FB10214FF4006C8DF80F1021482146BF
:100C0000ADF80CC000F0DCFB4020ADF80C00214634
:100C10001C4800F0D5FB48234FF4804221461A4877
:100C20008DF80F30ADF80C2000F0CAFB8021ADF834
:100C30000C101448214600F0C3FB3146304600F04A
:100C400003FD684600F016FE41F61F40ADF80000B7
:100C50004FF0FF334FF0804069466C46ADF80430EA
:100C6000ADF8025000F04EFD7FBD00BF5C0C0020CF
:100C7000600C0020CC1C000800ED00E010E000E05B
:100C80000010014000080140000C014010B50A248A
:100C9000444301214FF0804000F0F5FD4FF08040CB
:100CA0000021A4B200F039FE4FF0804000F03DFE7C
:100CB000A042F9D34FF08040002100F0E4FD10BDC8
:100CC0009E484FF47A72F8B50260FFF727FFFFF7EE
:100CD0004DFEFFF72DFA9A4B9A481968FFF79AFDD7
:100CE00000F0ACF9984C994DFFF742FC06B2B6F112
:100CF000FF3FF9D0112E00F0838009DC16F1020FBE
:100D0000F2D0102E22D016F1030F40F005810BE037
:100D1000132E00F0A180C0F2CA80142E00F0EB80E8
:100D20002E2E40F0F98001E0894892E08948FFF7D3
:100D3000A1FC00200146FFF7EDFD81490F68384610
:100D400000F0BEFE3946C2B23046F3E08248FFF7FB
:100D500091FC04217C48FFF7DDFD207867784FF493
:100D60000063A678E278A3F5F86C2B6147EA0027C8
:100D7000C5F810C000204FF4FA6142EA062600F0E0
:100D8000DBF90120754900F0D7F90FE07449D1F87B
:100D900008E01EF4804001D100F02EF9D5F808C01B
:100DA0001CF0800F02D1012000F026F9002000F095
:100DB000F1F980B20028E9D1013000F0EBF980B2FE
:100DC0000028E3D17B4219B200F0B6F931B201201C
:100DD00000F0B2F9002000F0DDF986B22EB101205A
:100DE00000F0D8F982B2002AF4D1002000F004F912
:100DF000012000F001F95B48FFF73CFC202088E06F
:100E00005948FFF737FC50480121FFF783FD207850
:100E100020B1002121200A46FFF7AAFC00204FF054
:100E2000FF3100F089F90120014600F085F900202A
:100E300000F0B0F987B22FB1012000F0ABF981B218
:100E40000029F4D1217819B921200A46FFF790FC36
:100E50004648FFF70FFC47E74548FFF70BFC022128
:100E60003948FFF757FD2178667839B1012914BF59
:100E70004FF0FF310121002000F05EF93EB1012E5C
:100E800014BF4FF0FF310121012000F055F900207F
:100E900000F080F983B22BB1012000F07BF986B21B
:100EA000002EF4D13348FFF7E5FB232031E0032186
:100EB0002548FFF72FFD21782F48FFF7ABFC94F86A
:100EC00000C01CF0010F15BF4FF400624FF4006228
:100ED0002A616A611CF0020F02D04020286101E003
:100EE00040276F6194F801E0A17841EA0E20FFF7F6
:100EF000CDFE22200DE02148FFF7BCFB002001467B
:100F0000FFF708FD012000F077F8002000F074F8EA
:100F1000242000210A460DE000200146FFF7FAFCDC
:100F200031461748FFF776FC064600F0C9FD31460A
:100F300002462F20FFF71CFCD6E600BF0800002069
:100F400004000020941B0008740C002000080140DD
:100F5000A01B0008B51B0008C51B000830F8FFFFE8
:100F6000000C0140EC1B0008141C0008291C0008A0
:100F7000451C0008561C00086E1C0008841C000854
:100F80009C1C000870B51948012100F0E7FC002303
:100F9000174818491A464FF4005600EB030CBCF8EA
:100FA0000440ECB1C55C3DB114F4004F01D00134F4
:100FB00000E0013CACF80440012A04D00DB14E61C0
:100FC00005E00E6103E00DB14A6100E00A6110F82E
:100FD00003E0DEF1010C38BF4FF0000C00F803C055
:100FE00001320633022AD8D170BD00BF0004004090
:100FF000480C0020000C014010B1012810D107E07E
:101000000C4B4FF40041A1F5C04259615A6107E011
:10101000DFF820C04FF40062CCF81420CCF81400A4
:1010200006225043044900230A180B54538093802E
:10103000704700BF000C0140480C0020F0B589B09B
:1010400048F2000E08AC3A4E24F804ED10210227B5
:101050008DF81F10304621468DF81E7000F0B0F953
:101060004FF40050ADF81C002146304600F0A8F9BE
:101070004FF400654FF4805230462146ADF81C20F5
:1010800000F09EF9ADF81C5030460125214600F0D5
:1010900097F92B46304621460093ADF81C5000F0DE
:1010A0008FF94FF4806C21463046ADF81CC000F03B
:1010B00087F90020FFF7A0FF2846FFF79DFF03AC4C
:1010C0002946384600F0C0FA20460194194C00F039
:1010D000D1FB142040F2CF210026ADF80C10ADF862
:1010E000100001992046ADF80E6000F00BFB204681
:1010F000294600F0ECFB2946204600F0C4FB4FF4E3
:10110000A06000F0FFF8009B1D2206A88DF81820B3
:101110008DF819608DF81A608DF81B3000F0FCF81E
:10112000204629462A46374600F0BBFB09B0F0BDF1
:10113000000C01400004004038B504460D4610B1D3
:10114000012819D10BE0114B4FF4004200291A611C
:10115000CCBFA2F5E0424FF4805208DC0BE00B4B11
:101160004FF4006200291A6103DDA2F580625A6122
:1011700002E04FF480621A610120FFF787FD044B03
:10118000062202FB0434ED00A58038BD000C0140AE
:10119000480C0020034B062202FB0030B0F904008B
:1011A000704700BF480C0020704700BFFDE7FEE716
:1011B000FEE7FEE77047704770470000144BDFF80A
:1011C00054C01968481C18601A68DCF80000B2FBAB
:1011D000F0F100FB1123D3B90F4A13784BB1DFF8BC
:1011E0003CC04FF400514818CCF81010CCF8100057
:1011F00005E00A4A4FF40051481851615061DFF888
:1012000018C0D3F1010338BF00238CF800307047B9
:10121000580C002008000020540C00200010014051
:101220007047704770477047704770477047704706
:1012300070477047704770477047704770477047F6
:1012400070477047704770477047704770477047E6
:101250007047704770477047704708B5FFF792FEB8
:1012600008BD08B5FEF7BCFF08BD70477047704762
:10127000704770477047000008B50A4840F2255192
:1012800000F0EFFB28B1074800F0E7FBC0B2FFF722
:10129000EDF9044840F2277100F0E3FB08B1FFF7D5
:1012A00083F908BD0038014008B50A4840F22551CD
:1012B00000F0D7FB28B1074800F0CFFBC0B2FFF722
:1012C0000FFA044840F2277100F0CBFB08B1FFF79A
:1012D00029F908BD004400407047704770477047C7
:1012E0007047704770477047704770477047704746
:1012F0007047704770477047704770477047704736
:101300007047000040F0BE61024B41F42020D860DD
:10131000704700BF00ED00E0C2780378FAB1DFF853
:1013200054C0DCF80C1090F801C0CA43C2F302228A
:10133000C2F104010CFA01FC0F21D1408078014078
:1013400041EA0C020C481101C9B21A1882F80013C4
:101350000120590903F01F0310FA03F306E05909AD
:10136000012003F01F0310FA03F32031024A42F870
:101370002130704700ED00E000E100E0034B196808
:1013800001F0380210431860704700BF002002408F
:10139000044BD3F800C02CF0100119601A681043F8
:1013A00018607047002002400348044B00F1883267
:1013B00058605A60704700BF230167450020024013
:1013C000F7B5CF7817F0100F07F00F021CBF8F781A
:1013D0003A430F8817F0FF0F22D0D0F800C0002347
:1013E0000197012414FA03F5019E05EA0604AC42B4
:1013F00011D19E000F2717FA06F512FA06F62CEA0D
:10140000050CCD784CEA060C282D08BF446102D0AB
:10141000482D08BF04610133082BE2D1C0F800C099
:101420000F88FF2F24D9D0F804C00023019203F1C4
:101430000804012212FA04F505EA0704AC4212D1AD
:101440009E000E3212FA06F5019A2CEA050C12FAE9
:1014500006F6CD784CEA060C282D08BF446102D070
:10146000482D08BF04610133082BE0D1C0F804C047
:10147000FEBD00000F4B10481A6842F0010CC3F883
:1014800000C0596801EA00025A60D3F800C02CF08D
:10149000847121F4803018601A6822F4802CC3F81B
:1014A00000C059684FF41F0221F4FE0058609A6092
:1014B000704700BF001002400000FFF80C4BB0F571
:1014C000803F1A6822F4803CC3F800C0196821F4F8
:1014D00080221A6003D0B0F5802F08D103E018688D
:1014E00040F4803202E0196841F4A0221A6070478B
:1014F00000100240044BD3F804C02CF47C121043BB
:1015000008435860704700BF00100240014B18604C
:10151000704700BF60004242034B596821F003024C
:1015200010435860704700BF00100240024B5868DB
:1015300000F00C00704700BF00100240034B5968D8
:1015400021F0F00210435860704700BF00100240C5
:10155000034B596821F4E06210435860704700BFA4
:1015600000100240034B596821F4605242EAC00067
:101570005860704700100240034B596821F4404204
:1015800010435860704700BF00100240224B5A6859
:1015900002F00C02042A14D0082A12D1D3F804C095
:1015A0005968CCF38342023211F4803F05D05B6866
:1015B00013F4003F08BF194B00D0194B5A43026087
:1015C00001E0164B0360144BD0F800C05968C1F31A
:1015D000031214498A5C2CFA02F24260D3F804C068
:1015E000CCF3022C11F80CC022FA0CFCC0F808C095
:1015F000D3F804C0CCF3C22C11F80C10CA40C2605E
:10160000D3F804C00849CCF3813311F803C0B2FB0E
:10161000FCF10161704700BF0010024000127A0027
:1016200000093D00100000200C00002019B1054BFE
:101630009A69104303E0034B996921EA000098611D
:10164000704700BF0010024019B1054BDA69104322
:1016500003E0034BD96921EA0000D861704700BF5D
:10166000001002404309012B04BF084B1B6805D042
:10167000022B0BBF054B054B1B6A5B6A00F01F0179
:1016800033FA01F000F00100704700BF0010024083
:1016900007B5002301933120FFF7E4FF019B5A1C9B
:1016A00001920199B1F5A06F01D00028F3D031204B
:1016B000FFF7D8FF003818BF01200EBD10B5048C0D
:1016C00024F0100C4FEA0C444FEA144CA0F820C050
:1016D000B0F818C0048C2CF4407C4FEA0C5C4FEA44
:1016E0001C5C4CEA022CA4B24CEA033224F0200326
:1016F00043F0100C4CEA011392B299B202830184B8
:1017000010BD0000028802F08F030380B0F800C013
:10171000CA881FFA8CF313434A8813431FFA83FCC9
:101720008A88A0F800C00B88DFF824C08285094AA7
:101730000385604514BF00230123904208BF43F096
:1017400001030BB1097A018601238382704700BF30
:10175000002C014000340140F8B50D46044649888C
:10176000AA88288800290CBF02270027012A14BF55
:10177000012602262B8900283FD1B4F820C041F071
:1017800001012CF001000004000C2084208B1FFAC2
:1017900080FE2EF0F30C208C4CEA031E1FFA8EFC08
:1017A00020F002004CEA020E0204100C0843A4F8D8
:1017B00018E02084B4F818C0E9882CF00C0002046A
:1017C000100C2083B4F818E020461FFA8EF20A436A
:1017D000228339463246FFF771FFB4F818C0EA8811
:1017E0002CF4406001040B0C2383208B1FFA80FC37
:1017F0004CEA02218BB223833BE02046FFF75EFFD9
:10180000B4F818C0EA882CF440610B04180C20834B
:10181000B4F818C01FFA8CF141EA022398B2208371
:10182000B4F820C028892CF001010B04190C218484
:10183000238BB4F820C099B21FFA8CFC21F0F3017D
:1018400041EA00132CF0020198B241F0010340EA92
:10185000060643EA070726832784B4F818C02CF04D
:101860000C0001040B0C2383208B81B241EA02039C
:101870002383F8BD00234FF0FF3181800380C380B4
:1018800043800372704721B101888BB243F001039A
:1018900005E0B0F800C02CF001039A05930D038019
:1018A00070471AB1828993B2194304E083891FFA01
:1018B00083FC2CEA010181817047B0F808C02CF04C
:1018C000700213041A0C41EA02030381704721B12C
:1018D00001888BB243F0800305E0B0F800C02CF023
:1018E00080039A05930D03807047B0F808C02CF070
:1018F00007031A04130C0381028993B2194301816F
:101900007047B0F808C02CF080031A04130C038150
:10191000028993B219430181704781847047808E98
:1019200080B27047008F80B27047808C80B2704761
:10193000038A19420CBF002001207047CA4391B2AC
:1019400001827047038A828911420CBF0020012066
:1019500019420CBF002000F001007047CA4391B249
:101960000182704730B5B0F810E004462EF44052C2
:101970000D461004C988030C0B432382A289B5F8D5
:1019800008C0B5F804E022F4B0506A8920F00C01D8
:101990004CEA0E0010430B041B0C81B241EA030C0D
:1019A000A4F80CC0B4F814E0AB892EF44072100413
:1019B000010C194387B0A18201A8FFF7E7FD0F4B87
:1019C00028689C420CBF049B039B1922534381004F
:1019D000B3FBF1FC6423BCFBF3F21201100903FB1F
:1019E00010C108013230B0FBF3F101F00F0343EAFC
:1019F000020082B2228107B030BD00BF0038014032
:101A000021B181898BB243F4005305E0B0F80CC0DA
:101A10002CF400531A04130C83817047C1F3421352
:101A20004FF0010C01F01F0163450CFA01F101D1E7
:101A30000C3004E0022B01D1103000E014301AB158
:101A4000036843EA010102E0026822EA0101016041
:101A50007047CA05D10D818070478188C805C00DC7
:101A6000704701F01F030122C1F3421C9A40BCF1F0
:101A7000010F08BF838904D0BCF1020F0CBF038A99
:101A8000838A9BB202EA0303090A012212FA01F1D6
:101A9000B0F800C01FFA8CF001420CBF00200120FA
:101AA000002B0CBF002000F001007047002304E071
:101AB00011F803C000F803C001339342F8D3704714
:101AC0000346C04313F8012B002AFBD118187047B6
:101AD0000A495220626974207472616E736D697470
:101AE0005F74696D65204552524F52205B25645DDD
:101AF0002025642F2564000A4952206269742073EE
:101B0000696C656E745F74696D65204552524F5201
:101B1000205B25645D2025642F2564000A4952203E
:101B2000434D4420636F6E74726F6C206269742041
:101B30004552524F52205B25645D202578000A49AA
:101B40005220424F445920636F6E74726F6C206252
:101B50006974204552524F52205B25643A25645DDA
:101B600020257800207263760A0020736E640A00D4
:101B7000676574436D64426F6479205B25645D3AE8
:101B800000000000303132333435363738394142C5
:101B900043444546537461727465642025730A009A
:101BA000434D445F53545F54494D454F55545F4432
:101BB0004154410A00434D445F52515F56455253D0
:101BC000494F4E0A00434D445F52515F5343414ECB
:101BD0005F494E49545F4C415345525F504F534902
:101BE00054494F4E2073746172740A00434D445F30
:101BF00052515F5343414E5F494E49545F4C4153EC
:101C000045525F504F534954494F4E2066696E69A3
:101C100073680A00434D445F52515F5343414E5F26
:101C2000444F5F535445500A00434D445F52515F47
:101C30005343414E5F444F5F535445502066696E95
:101C40006973680A00434D445F52515F444F5F53CC
:101C5000544550530A00434D445F52515F444F5F17
:101C600053544550532066696E6973680A00434DAA
:101C7000445F52515F4C415345525F4354524C2094
:101C800025780A00434D445F52515F4D4F544F52E7
:101C90005F504F5745525F4F46460A00756E737549
:101CA00070706F7274656420434D443A2578680AF9
:101CB0000076312E30204A756C203235203230319A
:101CC000382032303A32353A3535000000A24A0425
:101CD000FFFF0100B11C0008E80300000204060831
:101CE00000000000010203040102030406070809C2
:0400000508000000EF
:00000001FF
